:10000000020810AE077D08EE30E704D2948002C2E9
:1000100094EE25E0FE120806C29512080BDDE822D8
:100023000205E0EFD3940740037F0122120430FE60
:10003300D3940340037F0222EF7041EE700B9000D4
:1000430001120449F452935294120430B4010B90F8
:1000530000011204494293F45294120430FEB40294
:100063000A90000112044942934294EEB4030D90A6
:100073000001120449FEF45293EE4294EF640170BE
:1000830043120430FE700B900001120449F45291A4
:100093005292EEB4010B9000011204494291F452C2
:1000A30092120430B4020A900001120449429142B0
:1000B30092120430B4030D900001120449FEF4526D
:1000C30091EE4292EF64027043120430FE700B9083
:1000D3000001120449F452955296EEB4010B9000BC
:1000E300011204494295F45296120430B4020A9064
:1000F300000112044942954296120430B4030D9054
:100103000001120449FEF45295EE4296EF64037027
:1001130043120430FE700B900001120449F452B1F3
:1001230052B2EEB4010B90000112044942B1F452F1
:10013300B2120430B4020A90000112044942B142DF
:10014300B2120430B4030D900001120449FEF452BC
:10015300B1EE42B2EF64047043120430FE700B90B0
:100163000001120449F452B352B4EEB4010B9000EF
:100173000112044942B3F452B4120430B4020A9097
:10018300000112044942B342B4120430B4030D9087
:100193000001120449FEF452B3EE42B4EF64057059
:1001A30043120430FE700B900001120449F452C94B
:1001B30052CAEEB4010B90000112044942C9F45231
:1001C300CA120430B4020A90000112044942C9421F
:1001D300CA120430B4030D900001120449FEF45214
:1001E300C9EE42CAEF64067043120430FE700B90EE
:1001F3000001120449F452CB52CCEEB4010B90002F
:100203000112044942CBF452CC120430B4020A90D6
:10021300000112044942CB42CC120430B4030D90C6
:100223000001120449FEF452CBEE42CCEF64077096
:1002330043120430FF700B900001120449F452E1A1
:1002430052E2EFB4010B90000112044942E1F4526F
:10025300E2120430B4020A90000112044942E1425E
:10026300E2120430B4030D900001120449FFF4526A
:10027300E1EF42E27F00228B158A168917EF6401B2
:10028300600302042D751C01F51DF51EF51FF520F5
:10029300F521F5227F80900080E4F0A3DFFC7F80CE
:1002A300900000E4F0A3DFFCAB15AA16A917900099
:1002B3000A120449FED3940340037F0222EE700521
:1002C30053B7EFC2BC90000A120449B4010553B7F7
:1002D300EFD2BC90000A120449FFB4020543B710E1
:1002E300C2BCEFB4030543B710D2BC120430D3949D
:1002F300C040037F0222120430FFE598543F4FF5BC
:1003030098EF64C06008EF644060030203C290008A
:100313000212057A7F007E607D547C001204C48F34
:100323001B8E1A8D198C18E4FFFE7D01FCAB1BAAF2
:100333001AA919A818C312055640037F0222C3E461
:10034300951BF51BE4951AF51A74019519F519E433
:100353009518F518AB15AA16A917900001120449B0
:10036300FB6401702CC28E538EFE5389BF5389CF19
:10037300438E40AF1BAE1AAD19AC1878081205674F
:100383008F8D851B8BC2AB5389BF538FFDD28E805C
:1003930062EB64027026538EEF438E01538EF74354
:1003A3008E04AF1BAE1AAD19AC1878081205678F0F
:1003B300D6851BD753AFFB438E1080377F0222AB0A
:1003C30015AA16A917120430FF701390000812041F
:1003D30049B40105438E20801A538EDF8015EFB494
:1003E3008011900008120449B401054387808003FB
:1003F30053877FAB15AA16A917900009120449B4B5
:100403000104D2AC8002C2AC900007120449B401CB
:1004130004D29C8002C29C90000B12044954C0FF7A
:10042300E5A2543F4FF5A27F00227F0222BB0106C3
:1004330089828A83E0225002E722BBFE02E32289FB
:10044300828A83E49322BB010CE58229F582E5834A
:100453003AF583E0225006E92582F8E622BBFE0640
:10046300E92582F8E222E58229F582E5833AF583DC
:10047300E49322BB010689828A83F0225002F72289
:10048300BBFE01F32275F008758200EF2FFFEE33F8
:10049300FECD33CDCC33CCC58233C5829BED9AECF4
:1004A30099E58298400CF582EE9BFEED9AFDEC995E
:1004B300FC0FD5F0D6E4CEFBE4CDFAE4CCF9A88268
:1004C30022B800C1B90059BA002DEC8BF084CFCE0D
:1004D300CDFCE5F0CBF97818EF2FFFEE33FEED33CB
:1004E300FDEC33FCEB33FB10D703994004EB99FB92
:1004F3000FD8E5E4F9FA227818EF2FFFEE33FEED7B
:1005030033FDEC33FCC933C910D7059BE99A400787
:10051300EC9BFCE99AF90FD8E0E4C9FAE4CCFB229E
:1005230075F010EF2FFFEE33FEED33FDCC33CCC867
:1005330033C810D7079BEC9AE899400AED9BFDEC72
:100543009AFCE899F80FD5F0DAE4CDFBE4CCFAE4B1
:10055300C8F922EB9FF5F0EA9E42F0E99D42F0E8EC
:100563009C45F022E8600FECC313FCED13FDEE1382
:10057300FEEF13FFD8F122BB010DE58229F582E5D9
:10058300833AF5830205B75007E92582F80205AAE5
:10059300BBFE07E92582F80205C3E58229F582E55A
:1005A300833AF5830205D0E6FB08E6F908E6FA0884
:1005B300E6CBF822E0F8A3E0F9A3E0FAA3E0FB22FC
:1005C300E2FB08E2F908E2FA08E2CBF822E493F846
:1005D300740193F9740293FA740393FB22C0E0C08D
:1005E30083C082C0D075D000C007309824C298E57C
:1005F30022701EE520C394804003752000AF2005C0
:100603002074002FF582E43400F583E599F0752119
:1006130005309927C299E51D651E601C7480251D50
:10062300F582E43400F583E0F599051DE51DC394D7
:10063300804008751D008003751F00D007D0D0D0FF
:1006430082D083D0E0325354433848384B36345544
:1006530020554152543120546573742050726F6792
:1006630072616D6D65210D0A0041542B434950534E
:10067300544152543D22544350222C223139322EBC
:100683003136382E34332E323137222C3830383647
:100693000D0A0041542B4349504D4F44453D310011
:1006A30041542B43495053454E44001207AE20D5C5
:1006B30036AF041200031207B820D52B1207F77FB9
:1006C3005B1200031207B820D51D120793EF120423
:1006D30076740129F9E43AFAE52C640160031208FF
:1006E30031D52CE612083B020827750940750A022A
:1006F300750E00750DC2750C01750B00751001E4C4
:10070300F511751201F513751440FB7A0079097F11
:100713000112027A7BFF7A0679490207C41207AEF7
:1007230020D522AF041200031207B820D5171204F4
:1007330030FF120003740129F9E43AFA1207B820D2
:10074300D503D527E90208277BFF7A06796C1207C0
:10075300C47F051207D77BFF7A0679961207C47FF9
:10076300051207D77BFF7A0679A30207C474802595
:100773001EF582E43400F583EFF0051EE51EC394F5
:10078300804003E4F51EE51F7005751F01D2992211
:100793007D08D294D29512080BEE25E0FE30940129
:1007A3000EC29512080BDDECAF0622AC071207F759
:1007B3007F5A120003120804A29492D5C29502082C
:1007C3000B120430FF600C120770740129F9E43A2C
:1007D300FA80EE227DA37C08ED1D70011C144C7081
:1007E300F7DFF122750AC3E4F509FB7A0079097F83
:1007F30003020026120804C29412080BC2950208D1
:100803000BD29412080BD2957F0BDFFE22787FE484
:10081300F6D8FD75812C02081C1207E71206EDD2EB
:10082300AF02074BC294120806D29402080BC2947B
:10083300120806C29502080B120804C29502080B9F
:00000001FF
