:10000000021EA9AE0743BA801223A87F7812238E5E
:10001000120018AF0612238E90FE817403F00223A3
:010020007F60
:07002300021FBA53BCDF32DB
:10002B00020026C0D075D000C007AFBA43BA808F8C
:06003B00BAD007D0D0325C
:10004300021F35252E30346600413A000D0A004266
:100053003A00433A00443A0053544338205541523E
:10006300543120546573742050726F6772616D6DE3
:1000730065210D0A0041542B4349505354415254B6
:100083003D22544350222C223139322E3136382E20
:1000930034332E323137222C383038360D0A0041B2
:1000A300542B4349504D4F44453D310041542B435C
:0F00B300495053454E440001020408102040807C
:1000C30002002E0202D1E86480F8E933E8336011BC
:1000D3000460F0ED33EC337009E8FCE9FDEAFEEB74
:1000E300FF220460DED3EB9FEA9EE99DE8C2E78C22
:1000F300F0C2F795F0400CE8CCF8E9CDF9EACEFA76
:10010300EBCFFB12029C85D0F05804700320D5B3CB
:10011300E80470075002B2D50202DB92D5EC04600A
:10012300F7E4CCC0E0C398F8603B94186008400D36
:10013300D0E0FB0202B3E4FBFAC9FC8028E830E418
:1001430006E4C9FBE4CAFCE830E305E4C9CACBFC16
:10015300E854076010F8C3E913F9EA13FAEB13FB49
:10016300EC13FCD8F130F52FC3E49CFCEF9BFFEEBE
:100173009AFEED99FDD0E0FBEF4E4D4C701222DB61
:10018300030202D8EC2CFCEF33FFEE33FEED33FD1C
:10019300ED30E7EB0202B3EF2BFFEE3AFEED39FD54
:1001A300D0E0FB50130BBB00030202DBED13FDEEAB
:1001B30013FEEF13FFEC13FC0202B30202DBEC5D50
:1001C300046005E8590470030202D112029C58042A
:1001D30060F6EC4860F2EC7004FDFEFF22C860DBC1
:1001E3002481C85009C398600250060202D898506F
:1001F300CAF582E9294B4A7005AB820202C775F042
:10020300007C1A7880C3EF9BEE9AED99400DC3EF03
:100213009BFFEE9AFEED99FDE842F0DC23ACF0D0B3
:10022300E0FFD0E0FED0E0FDAB8220E7101BEB60E7
:10023300BAEC2CFCEF33FFEE33FEED33FD0202B3D9
:10024300E803F830E705C0F075F000EF2FFFEE3359
:10025300FEED33FD40B830E7C280AA75F020800E72
:1002630075F010800575F0087D007E007F003392E5
:10027300D530D503120790EC334010EF33FFEE3344
:10028300FEED33FDEC33FCD5F0ED22E5F0247EA248
:10029300D513CC92E7CDCEFF22E9D2E7C933E833B9
:1002A300F892D5EDD2E7CD33EC33FC5002B2D52230
:1002B300EC30E7100FBF000C0EBE00080DBD0004AC
:1002C3000BEB6014A2D5EB13FCED92E7FD2274FF58
:1002D300FCFDFEFF22E480F8A2D574FF13FC7D80B1
:1002E300E480EFF920E73624F950037907E4F42496
:1002F30002FBE582158270021583DBF6E024FB50D6
:100303001BE96014E4F0E582158270021583E004B2
:10031300F0B40A08E4F0D9EE7401F00A22C2D5223F
:10032300ED33EC3392D5FA602AB4FF33EDC2E77BA9
:10033300FF60067A037948E4227A03795120D504D1
:100343007A03794C224E614E002B494E46002D49CB
:100353004E4600E47A08F0A3DAFC7B00740722C05F
:1003630083C082ECC0E0EDC0E0EEC0E0EFC0E0EAA5
:1003730075F010A4CAABF075F04DA42BFBE435F077
:10038300FCEA2410FAEB34C5FBEC34D9FCEDC2E7EC
:10039300FF75F056A4F42411C5F0F434C58FF0A40E
:1003A3002AE5F03BE43CF020E71412055ED0E0FFC1
:1003B300D0E0FED0E0FDD0E0FC1201C18014F404D3
:1003C30012055ED0E0FFD0E0FED0E0FDD0E0FC12ED
:1003D3000428D082D083E0FAEDD2E7CD33EC332486
:1003E30082FBE4C3CF33CFCE33CECD33CD33DBF378
:1003F3007B0775F00A846004F0A31B0AE5F0F0A301
:100403008FF0740AA4FFACF08EF0740AA42CFEAC37
:10041300F050010C8DF0740AA42CFDE435F0F0A328
:10042300DBDE740722EC4D6011E8497017ED33EC05
:100433003304600DE4FCFFFEFD22E933E83304706E
:10044300F80202D112029C58046009E4CC248150C2
:10045300062850090202DB2840030202D8C0E0EB61
:100463004A7044B98006D0E0FB0202C7EF4E701C0D
:10047300BD8008EBFFEAFEE9FD80EBE98DF0A4FE09
:10048300E5F0020511E9CDF9EAFEEBFFEF89F0A4EF
:10049300FCE5F0CE89F0A42EFFE435F0CD89F0A47D
:1004A3002DFEE435F08067EF4E7005BD80D780C325
:1004B300EF8BF0A4ACF0EE8BF0A42CFCE435F0F859
:1004C300EF8AF0A42CE5F038FCE433CB8DF0A42CB8
:1004D300FCE5F03BF8EE8AF0A42CFCE5F038F8E4F8
:1004E30033CF89F0A42CFCE5F038CF3400CE89F06B
:1004F300A42FFFE5F03EFEE433C98DF0A42EFEE504
:10050300F039CD8AF0A42FFFE5F03EFEE43DFD3344
:10051300D0E0FB50070BBB000F0202DBEC2CFCEF1F
:1005230033FFEE33FEED33FD0202B33F80000041A3
:1005330020000042C80000447A0000461C400047E7
:10054300C35000497424004B1896804CBEBC205AFB
:100553000E1BCA6753C21C749DC5AEFB60065407CD
:10056300601C232312058CEB5438600912057812A2
:100573000587120428ECF8EDF9EEFAEFCB22EB1223
:10058300058780F1543803241C90052EFE93FC0E3E
:10059300EE93FD0EEE930ECE93FF22BB01068982EE
:1005A3008A83E0225002E722BBFE02E32289828A89
:1005B30083E49322BB010CE58229F582E5833AF5B6
:1005C30083E0225006E92582F8E622BBFE06E925F0
:1005D30082F8E222E58229F582E5833AF583E49302
:1005E30022BB010689828A83F0225002F722BBFED6
:1005F30001F322F8BB010DE58229F582E5833AF583
:1006030083E8F0225006E92582C8F622BBFE05E9FD
:100613002582C8F222EF8DF0A4A8F0CF8CF0A42895
:10062300CE8DF0A42EFE22BC000BBE0029EF8DF070
:1006330084FFADF022E4CCF875F008EF2FFFEE3322
:10064300FEEC33FCEE9DEC984005FCEE9DFE0FD5D1
:10065300F0E9E4CEFD22EDF8F5F0EE8420D21CFEA5
:10066300ADF075F008EF2FFFED33FD40079850060E
:10067300D5F0F222C398FD0FD5F0EA22A3F8E0C526
:10068300F025F0F0E582158270021583E0C838F09A
:10069300E822F8BB0111E58229F582E5833AF58367
:1006A300E8F0E5F0A3F0225009E92582C8F608A690
:1006B300F022BBFE09E92582C8F2E5F008F22275B3
:1006C300F008758200EF2FFFEE33FECD33CDCC3330
:1006D300CCC58233C5829BED9AEC99E58298400C98
:1006E300F582EE9BFEED9AFDEC99FC0FD5F0D6E476
:1006F300CEFBE4CDFAE4CCF9A88222B800C1B9005C
:1007030059BA002DEC8BF084CFCECDFCE5F0CBF9BC
:100713007818EF2FFFEE33FEED33FDEC33FCEB33B4
:10072300FB10D703994004EB99FB0FD8E5E4F9FAE2
:10073300227818EF2FFFEE33FEED33FDEC33FCC9C7
:1007430033C910D7059BE99A4007EC9BFCE99AF95A
:100753000FD8E0E4C9FAE4CCFB2275F010EF2FFFC9
:10076300EE33FEED33FDCC33CCC833C810D7079B33
:10077300EC9AE899400AED9BFDEC9AFCE899F80F96
:10078300D5F0DAE4CDFBE4CCFAE4C8F922C3E49F64
:10079300FFE49EFEE49DFDE49CFC22EB9FF5F0EA62
:1007A3009E42F0E99D42F0E89C45F022E8600FECA0
:1007B300C313FCED13FDEE13FEEF13FFD8F122E894
:1007C300600FEFC333FFEE33FEED33FDEC33FCD8A4
:1007D300F122BB010789828A830209145005E9F8D3
:1007E300020908BBFE05E9F802092089828A83020F
:1007F300092CBB010789828A8302083F5005E9F867
:10080300020972BBFE05E9F802097E22BB010DE570
:100813008229F582E5833AF5830209495007E925E0
:1008230082F802093CBBFE07E92582F8020955E577
:100833008229F582E5833AF583020962ECF0A3EDA0
:10084300F0A3EEF0A3EFF022A8828583F0D083D04B
:1008530082120862120862120862120862E473E4E8
:1008630093A3C583C5F0C583C8C582C8F0A3C58358
:10087300C5F0C583C8C582C822BB010789828A83A4
:1008830002084B5005E9F802098ABBFE05E9F802A4
:1008930009A322F8E0FBA3A3E0F925F0F0E5821514
:1008A3008270021583E0FA38F022EBF0A3EAF0A39A
:1008B300E9F022D083D082F8E4937012740193702C
:1008C3000DA3A393F8740193F5828883E4737402F0
:1008D300936860EFA3A3A380DFEF4E6012EF600184
:1008E3000EEDBB010B89828A83F0A3DFFCDEFA22C3
:1008F30089F05007F709DFFCA9F022BBFEFCF309DE
:10090300DFFCA9F022E6FC08E6FD08E6FE08E6FFA8
:1009130022E0FCA3E0FDA3E0FEA3E0FF22E2FC084B
:10092300E2FD08E2FE08E2FF22E493FC740193FD7A
:10093300740293FE740393FF22E6FB08E6F908E6CC
:10094300FA08E6CBF822E0F8A3E0F9A3E0FAA3E083
:10095300FB22E2FB08E2F908E2FA08E2CBF822E420
:1009630093F8740193F9740293FA740393FB22ECE2
:10097300F608EDF608EEF608EFF622ECF208EDF2D3
:1009830008EEF208EFF222D083D082E493F60874E3
:100993000193F608740293F608740393F6740473D0
:1009A300D083D082E493F208740193F20874029323
:1009B300F208740393F2740473E50824E7F582E400
:1009C3003402F583E00508229002E4300703900225
:1009D300E7E475F00112089602059E2000E97F2ED8
:1009E300D2008018EF540F2490D43440D4FF300445
:1009F3000BEF24BFB41A0050032461FFE509600222
:100A03001509050CE50C7002050B30070E9002E486
:100A1300E475F001120896EF0205E40222F574036F
:100A2300D2078003E4C207F5089002E41208ADE49C
:100A3300F509F50BF50CE50960077F201209FF8026
:100A4300F5750AFFC201C200C202C203C205C20693
:100A5300C2081209CBFF700D3007057F00120A1080
:100A6300AF0CAE0B22B4255FC2D5C2041209CBFF73
:100A730024D0B40A00501A75F00A780930D5050855
:100A8300B6FF0106C6A426F620D5047002D2038061
:100A9300D924CFB41A00EF5004C2E5D204020D02E8
:100AA300D20180C6D20080C0D20280BCD2D580BA27
:100AB300D20580B47F201209FF2002077401B50913
:100AC3000040F11209BCFF1209FF020A39D208D211
:100AD3000680951209BCFB1209BCFA1209BCF94A3B
:100AE3004B700679007A0E7BFF20022EE509602AFF
:100AF3007E008E827583001205B760060EEE650ACE
:100B030070F0C2D5EBC0E0EAC0E0E9C0E0EE120D40
:100B130063D0E0F9D0E0FAD0E0FB12059EFF60AAB3
:100B2300EBC0E0EAC0E0E9C0E01209FFD0E0240135
:100B3300F9D0E03400FAD0E0FBE50A0460DCD50A22
:100B4300D98087D20280A2120D4560F7E50A7001B1
:100B5300041202E6A90A600DE50A600914F50A12F7
:100B63000DEDEF60F3EA30E702F404C3995079EA3C
:100B7300F4250A0430E701E404F50A800D120D455B
:100B830060C1EA050A250A1202E6EA900313F0306F
:100B9300E701E4250A04D50A0420050114120D63B4
:100BA300E4C0E0120DED900313E0601320E7071497
:100BB300F01209E7802204F0D0E014C0E07F0012B5
:100BC30009E7E50A60071209DE150A800B30050301
:100BD3001209DED0E0020A39D0E00480C4120D45C8
:100BE300609EE50A041202E6900313EAF0E50A2088
:100BF30005026001042404120D6374FF04C0E012B3
:100C03000DED1209E7E50A20050260031209DED0A3
:100C1300E0B50AE87F451209F1900313E07F2B301A
:100C2300E7047F2DF404C0E01209FFD0E075F00A59
:100C330084C0F01209E8D0E01209E8020A397910F9
:100C430080027908C206C2088008D2D5790A8004D6
:100C5300790AC2D5E50A047002F50AE4FAFDFEFF3B
:100C63001209BCFC7B082001131209BCFD7B103068
:100C7300000A1209BCFE1209BCFF7B20EC3382D5AB
:100C830092D55013C3E43000069FFFE49EFEE42098
:100C930001039DFDE49CFCE4CBF8C201EC700CCF96
:100CA300CECDCCE824F8F870F38017C3EF33FFEE12
:100CB30033FEED33FDEC33FCEB33FB994002FB0FCA
:100CC300D8E9EB300105F8D0E0C448B201C0E00A2E
:100CD300EC4D4E4F78207B0070C2EAB50A0040BC51
:100CE300C0E0120D65D0F0D0E0200104C4C0E0C420
:100CF300B201C0F01209E8D0F0D5F0EB020A3912C4
:100D030008B60AD6530C41580AA74C0AA3420C450D
:100D13004F0C4D440C4D490ABC430C53550B8046B4
:100D23000BE0450B4A470E20500AAB2D0AAF2E0AA3
:100D3300D22B0AB3230AD0200E092A0A6B480000DB
:100D43000ACAE50AB4FF03750A061209BCFC1209B4
:100D5300BCFD1209BCFE1209BCFF90030C02032365
:100D6300790AA2D5200314300509B910020404B985
:100D7300080104A2D5200602500104200268920251
:100D8300B509005034C0E07F203003197F30A20240
:100D930072067205500F120DBCC202C206C205C212
:100DA300087F30800F300503E9C0E01209FF3005EA
:100DB30003D0E0F9D0E0B509CC3005177F30B91086
:100DC3000C1209FF7F583004077F788003B90803AA
:100DD3001209FF3002057F2D0209FF7F202008F84A
:100DE3007F2B2006F322920280CF7F00B4070050AE
:100DF3000B240CF582E43403F583E0FF22286E759F
:100E03006C6C2900D2011209BC3001F8C2017809C7
:100E130030D50108F6020A6B2D504349581209BC1C
:100E23002403B405004001E4900E1B931209F074EF
:100E33003A1209F0D203750904020C419002F0EB57
:100E4300F0A3EAF0A3E9F09002EFEFF0640160038E
:100E530002106B90000004F0E4A3F0A3F0A3F0A34E
:100E6300F0A3F0A3F09002F3F09002F3E0FFC39439
:100E7300805014740E2FF582E43401F583E4F0906E
:100E830002F3E004F080E2E49002F3F09002F3E076
:100E9300FFC394805014740E2FF582E43400F5835D
:100EA300E4F09002F3E004F080E29002F0E0FBA3B0
:100EB300E0FAA3E0F990000A1205B7FED3940340C9
:100EC300037F0222EE700553B7EFC2BC90000A12F3
:100ED30005B7B4010553B7EFD2BC90000A1205B7AA
:100EE300FFB4020543B710C2BCEFB4030543B71008
:100EF300D2BC12059ED394C040037F022212059EEA
:100F0300FFE598543F4FF598EF64C06008EF6440E5
:100F13006003020FF690000212080F7F007E307DFF
:100F23002A7C001206FE9002F412083FE4FFFE7DC5
:100F330001FC9002F4E0F8A3E0F9A3E0FAA3E0FBDC
:100F4300C312079E40037F02229002F4E0F8A3E05D
:100F5300F9A3E0FAA3E0FBC3E49BFFE49AFE740168
:100F630099FDE498FC9002F412083F9002F0E0FB34
:100F7300A3E0FAA3E0F99000011205B7FB64017046
:100F830038C28E538EFE5389BF5389CF438E409010
:100F930002F4E0FCA3E0FDA3E0FEA3E0FF78081267
:100FA30007AF8F8D9002F4A3A3A3E0F58BC2AB53DD
:100FB30089BF538FFDD28E8073EB64027032538EE0
:100FC300EF438E01538EF7438E049002F4E0FCA3AB
:100FD300E0FDA3E0FEA3E0FF78081207AF8FD690F1
:100FE30002F4A3A3A3E0F5D753AFFB438E10803CD9
:100FF3007F02229002F0E0FBA3E0FAA3E0F91205DE
:101003009EFF70139000081205B7B40105438E20AC
:10101300801A538EDF8015EFB480119000081205FB
:10102300B7B40105438780800353877F9002F0E0C4
:10103300FBA3E0FAA3E0F99000091205B7B4010499
:10104300D2AC8002C2AC9000071205B7B40104D23F
:101053009C8002C29C90000B1205B754C0FFE5A20E
:10106300543F4FF5A27F00229002EFE06402600339
:101073000212009000077402F0E4A3F0A3F0A3F0BF
:10108300A3F0A3F0A3F09002F3F09002F3E0FFC308
:1010930094805014748E2FF582E43401F583E4F0C8
:1010A3009002F3E004F080E2E49002F3F09002F3A4
:1010B300E0FFC394805014748E2FF582E43400F55E
:1010C30083E4F09002F3E004F080E29002F0E0FBAE
:1010D300A3E0FAA3E0F912059EFF64C06008EF6481
:1010E3004060030211BD90000A1205B7FED39403BA
:1010F30040037F0222EE700653B6FE53B5FE900006
:101103000A1205B7B4010653B6FE43B50190000AAF
:101113001205B7FFB4020643B60153B5FEEFB4039D
:101123000643B60143B50112059EB4C005439A8038
:101133008003539A7F90000212080F7F007E307D58
:101143002A7C001206FE9002F412083FE4FFFE7DA3
:1011530001FC9002F4E0F8A3E0F9A3E0FAA3E0FBBA
:10116300C312079E40037F02229002F4E0F8A3E03B
:10117300F9A3E0FAA3E0FBC3E49BFFE49AFE740146
:1011830099FDE498FC9002F412083F538EEF538EBE
:10119300F7438E049002F4E0FCA3E0FDA3E0FEA37A
:1011A300E0FF78081207AF8FD69002F4A3A3A3E061
:1011B300F5D753AFFB438E1080037F02229002F0DA
:1011C300E0FBA3E0FAA3E0F99000091205B7B4012C
:1011D3000543AF01800353AFFE9000071205B7B478
:1011E3000105439A108003539AEF90000B1205B741
:1011F3005401FFE5BA54FE4FF5BA7F00227F022265
:10120300EFD3940740037F012212059EFED394037C
:1012130040037F0222EF7041EE700B900001120534
:10122300B7F45293529412059EB4010B900001122D
:1012330005B74293F4529412059EFEB4020A90003D
:10124300011205B742934294EEB4030D90000112CC
:1012530005B7FEF45293EE4294EF64017043120516
:101263009EFE700B9000011205B7F452915292EE5C
:10127300B4010B9000011205B74291F4529212058A
:101283009EB4020A9000011205B7429142921205E0
:101293009EB4030D9000011205B7FEF45291EE4285
:1012A30092EF6402704312059EFE700B90000112D0
:1012B30005B7F452955296EEB4010B900001120556
:1012C300B74295F4529612059EB4020A9000011299
:1012D30005B74295429612059EB4030D9000011284
:1012E30005B7FEF45295EE4296EF64037043120580
:1012F3009EFE700B9000011205B7F452B152B2EE8C
:10130300B4010B9000011205B742B1F452B21205B9
:101313009EB4020A9000011205B742B142B212050F
:101323009EB4030D9000011205B7FEF452B1EE42D4
:10133300B2EF6404704312059EFE700B900001121D
:1013430005B7F452B352B4EEB4010B900001120589
:10135300B742B3F452B412059EB4020A90000112CC
:1013630005B742B342B412059EB4030D90000112B7
:1013730005B7FEF452B3EE42B4EF640570431205B1
:101383009EFE700B9000011205B7F452C952CAEECB
:10139300B4010B9000011205B742C9F452CA1205F9
:1013A3009EB4020A9000011205B742C942CA12054F
:1013B3009EB4030D9000011205B7FEF452C9EE422C
:1013C300CAEF6406704312059EFE700B9000011273
:1013D30005B7F452CB52CCEEB4010B9000011205C9
:1013E300B742CBF452CC12059EB4020A900001120C
:1013F30005B742CB42CC12059EB4030D90000112F7
:1014030005B7FEF452CBEE42CCEF640770431205EE
:101413009EFF700B9000011205B7F452E152E2EF08
:10142300B4010B9000011205B742E1F452E2120538
:101433009EB4020A9000011205B742E142E212058E
:101443009EB4030D9000011205B7FFF452E1EF4281
:10145300E27F0022E49002E3F09002CAE0F8A3E006
:10146300F9A3E0FAA3E0FBC000C001C002C0037F00
:1014730002122039AC06AD07E4120263D003D00296
:10148300D001D0001200CD9002CA12083F9002CEC4
:10149300E0F8A3E0F9A3E0FAA3E0FBC000C001C0B9
:1014A30002C0037F03122039AC06AD07E4120263C6
:1014B300D003D002D001D0001200CD9002CE12088A
:1014C3003F9002D2E0F8A3E0F9A3E0FAA3E0FBC067
:1014D30000C001C002C0037F06122039AC06AD076D
:1014E300E4120263D003D002D001D0001200CD90E9
:1014F30002D212083F9002DAE0F8A3E0F9A3E0FA7F
:10150300A3E0FBC000C001C002C0037F0712203963
:10151300AC06AD07E4120263D003D002D001D000C1
:101523001200CD9002DA12083F9002E3E004F0E0EB
:10153300C39405500302145C9002CAE0FCA3E0FDCF
:10154300A3E0FEA3E0FFE4FBFA79A078401201C117
:101553009002CA12083F9002CEE0FCA3E0FDA3E094
:10156300FEA3E0FFE4FBFA79A078401201C19002E8
:10157300CE12083F9002D2E0FCA3E0FDA3E0FEA35D
:10158300E0FFE4FBFA79A078401201C19002D21285
:10159300083F9002DAE0FCA3E0FDA3E0FEA3E0FF36
:1015A300E4FBFA79A078401201C19002DA12083FF5
:1015B3007E007F087D007B017A0279951208DC7E2C
:1015C300007F087D007B017A02799D1208DC7E0092
:1015D3007F087D007B017A0279A51208DC7E007FFB
:1015E300087D007B017A0279AD1208DC9002E77472
:1015F300FFF0A37400F0A37446F09002CAE0FCA3CA
:10160300E0FDA3E0FEA3E0FF9002EA12083F7B01A6
:101613007A027995120A219002E774FFF0A374000D
:10162300F0A37446F09002CEE0FCA3E0FDA3E0FE3D
:10163300A3E0FF9002EA12083F7B017A02799D1230
:101643000A219002E774FFF0A37400F0A37446F03C
:101653009002D2E0FCA3E0FDA3E0FEA3E0FF900232
:10166300EA12083F7B017A0279A5120A219002E768
:1016730074FFF0A37400F0A37446F09002DAE0FC68
:10168300A3E0FDA3E0FEA3E0FF9002EA12083F7B84
:10169300017A0279AD020A21900295E09002B5F039
:1016A300900296E09002B6F0900297E09002B7F0B5
:1016B300900298E09002B8F0900299E09002B9F09D
:1016C30090029AE09002BAF090029BE09002BBF085
:1016D30090029CE09002BCF07BFF7A00794C1223CD
:1016E3005CE49002E3F09002E3E0FFC39408501738
:1016F30074B52FF582E43402F583E0FF1222CE9015
:1017030002E3E004F080DF7BFF7A00794F12235C71
:1017130090029DE09002B5F090029EE09002B6F038
:1017230090029FE09002B7F09002A0E09002B8F020
:101733009002A1E09002B9F09002A2E09002BAF008
:101743009002A3E09002BBF09002A4E09002BCF0F0
:101753007BFF7A00795212235CE49002E3F090025B
:10176300E3E0FFC39408501774B52FF582E4340205
:10177300F583E0FF1222CE9002E3E004F080DF7BEA
:10178300FF7A00794F12235C9002A5E09002B5F036
:101793009002A6E09002B6F09002A7E09002B7F0A4
:1017A3009002A8E09002B8F09002A9E09002B9F08C
:1017B3009002AAE09002BAF09002ABE09002BBF074
:1017C3009002ACE09002BCF07BFF7A0079551223C3
:1017D3005CE49002E3F09002E3E0FFC39408501747
:1017E30074B52FF582E43402F583E0FF1222CE9024
:1017F30002E3E004F080DF7BFF7A00794F12235C81
:101803009002ADE09002B5F09002AEE09002B6F027
:101813009002AFE09002B7F09002B0E09002B8F00F
:101823009002B1E09002B9F09002B2E09002BAF0F7
:101833009002B3E09002BBF09002B4E09002BCF0DF
:101843007BFF7A00795812235CE49002E3F0900264
:10185300E3E0FFC39408501774B52FF582E4340214
:10186300F583E0FF1222CE9002E3E004F080DF7BF9
:10187300FF7A00794F02235C1221A21220AB1222BD
:10188300A6121BAE12227BD2AF122157E4FBFDFF3F
:10189300121D547B01E4FD7F12121D547B02E4FDF3
:1018A3007F24121D547B03E4FD7F36121D547B04F9
:1018B300E4FD7F48121D547B05E4FD7F5A121D543D
:1018C3007B06E4FD7F6C121D5412145712169B7F86
:1018D3000A12236F122157E4FBFDFF121D547B01F3
:1018E300E4FD7F12121D547B02E4FD7F24121D547C
:1018F3007B03E4FD7F36121D547B04E4FD7F481215
:101903001D547B05E4FD7F5A121D547B06E4FD7FC5
:101913006C121D54E4FB7D03FF121D547B017D03F8
:101923007F12121D547B067D037F24121D547B02FC
:101933007D06E4FF121D547B037D067F12121D54A6
:101943007B067D067F24121D549002E1E0FB7A00A2
:101953009002E77403F0A37410F07D037F28121C38
:10196300997B077D037F41121D549002EF7410F0A1
:101973007B2F7D037F52121ABD7B087D037F5B1291
:101983001D547B097D037F6E121D549002E0E0FB22
:101993007A009002E77403F0A37410F07D067F28A9
:1019A300121C999002EF7410F07B257D067F411283
:1019B3001ABD7F3212236F0218CC43BA8090000203
:1019C3001205B76401704190FE80E04440F090FE40
:1019D30082E4F09000031205B790FE817006E05494
:1019E3007FF08004E04480F012059E543FFF90FE98
:1019F30080E054C04FF09000041205B790FE88B405
:101A03000103021A92021A8C90FE80E054BFF090F8
:101A1300FE84E4F09000051205B790FE83B401063E
:101A2300E04440F08004E054BFF09000061205B794
:101A330090FE83B40106E04420F08004E054DFF01C
:101A43009000071205B790FE83B40106E04410F03E
:101A53008004E054EFF09000081205B790FE83B4C1
:101A63000106E04408F08004E054F7F09000091206
:101A730005B725E0FF90FE85E054014FF090000A82
:101A83001205B790FE85B40106E054FEF08004E031
:101A93004401F090000B1205B7FFE5BA54CF4FF5A0
:101AA300BA9000011205B790FE807006E0547FF0F3
:101AB3008004E04480F053BA7F229002ECEFF0A35D
:101AC300EDF0E49002F0F0A3F0EB24E09002F0F0EC
:101AD3009002EFE064106003021B6B1221E4E490B8
:101AE30002F1F09002F1E0FFC3940850309002F04D
:101AF300E075F010A42FF582E435F0F583E5822438
:101B0300E2F582E5833425F583E493FF7E007D01CE
:101B13007C001223229002F1E004F080C69002ECD4
:101B2300E0FFA3E004FD1221ECE49002F1F0900247
:101B3300F1E0FFC3940850729002F0E075F010A436
:101B43002FF582E435F0F583E58224EAF582E58317
:101B53003425F583E493FF7E007D017C001223226C
:101B63009002F1E004F080C61221E4E49002F1F067
:101B73009002F1E0FFC3940650309002F0E075F05C
:101B830006A424BAF582E5F03423F583E5822FF524
:101B930082E43583F583E493FF7E007D017C0012AC
:101BA30023229002F1E004F080C622E4FDFC7FAE24
:101BB300FE122322E4FDFCFFFE12232212231CE467
:101BC300FDFC7FB0FE122322E4FDFC7F40FE1223C6
:101BD30022E4FDFC7F81FE122322E4FDFC7FFFFE55
:101BE300122322E4FDFC7FA1FE122322E4FDFC7FED
:101BF300A6FE122322E4FDFC7FA8FE122322E4FDAD
:101C0300FC7F3FFE122322E4FDFC7FC8FE12232249
:101C1300E4FDFC7FD3FE122322E4FDFCFFFE12232E
:101C230022E4FDFC7FD5FE122322E4FDFC7F80FE2F
:101C3300122322E4FDFC7FD8FE122322E4FDFC7F65
:101C430005FE122322E4FDFC7FD9FE122322E4FDCC
:101C5300FC7FF1FE122322E4FDFC7FDAFE12232235
:101C6300E4FDFC7F12FE122322E4FDFC7FDBFE1267
:101C73002322E4FDFC7F30FE122322E4FDFC7F8D52
:101C8300FE122322E4FDFC7F14FE122322E4FDFC5A
:101C93007FAFFE0223229002E3EFF0A3EDF0A3EA6D
:101CA300F0A3EBF0E49002EBF09002E9F09002E78E
:101CB300E0FF9002E9E0FEC39F4003021D53C3EF20
:101CC3009E14FD7F0A12233E9002E5E0FCA3E0FD93
:101CD300CFCDCFCECCCE12062A7C007D0A12062AA7
:101CE3009002EAEDF0A3E070369002E7E014FF9073
:101CF30002E9E0FEC39F5027A3E0701D9002E8E0D5
:101D0300FCC3138EF0A4FF9002E3E02FFFA3E0FDDA
:101D13009002EFECF07B20802B9002EB7401F090AB
:101D230002E8E0FEC313FFA3E0FDEF8DF0A4FF90F4
:101D330002E3E02FFFA3E0FD9002EAE02430FB90F2
:101D430002EFEEF0121ABD9002E9E004F0021CB0BB
:101D5300229002E5EBF09002E3EFF0A3EDF0E490C4
:101D630002E7F01221ECE49002E6F09002E6E0FFD5
:101D7300C3941050369002E5E075F020A424D2F508
:101D830082E5F0342BF583E5822FF582E43583F584
:101D930083E493FF7E007D017C001223229002E7FF
:101DA300E004F09002E6E004F080C09002E3E0FF7C
:101DB300A3E004FD1221ECE49002E6F09002E6E0D9
:101DC300FFC3941050369002E5E075F020A424E29E
:101DD300F582E5F0342BF583E5822FF582E4358334
:101DE300F583E493FF7E007D017C001223229002A1
:101DF300E7E004F09002E6E004F080C022900001E6
:101E03001205B7FFE5DE54F04FF5DE900002120530
:101E1300B7B4010543BC80800353BC7F9000031219
:101E230005B7B4010543DE20800353DEDF900005D0
:101E33001205B7B40104D2AD8002C2AD9000041202
:101E430005B7FFD39403505DEF700553B7DFC2BDF1
:101E5300EFB4010553B7DFD2BDEFB4020543B7209A
:101E6300C2BDEFB4030543B720D2BD12059EFFD315
:101E7300941F50319000061205B7FED394015025EC
:101E83009000071205B7FDD39403501943BA80EDB0
:101E9300C43354E0FDEEC433333354804D4F90FECE
:101EA300A8F053BA7F22787FE4F6D8FD758121022A
:101EB3001EF002187BE493A3F8E493A34003F68097
:101EC30001F208DFF48029E493A3F85407240CC833
:101ED300C333C4540F4420C8834004F456800146DE
:101EE300F6DFE4800B010204081020408090210CEF
:101EF300E47E019360BCA3FF543F30E509541FFE09
:101F0300E493A360010ECF54C025E060A840B8E479
:101F130093A3FAE493A3F8E493A3C8C582C8CAC5FC
:101F230083CAF0A3C8C582C8CAC583CADFE9DEE78E
:101F330080BEC0E0C083C082C0D075D000C006C0E0
:101F430007E59A30E02E539AFE90000DE07025903D
:101F5300000BE0C394804002E4F090000BE0FF0428
:101F6300F0748E2FF582E43400F583E59BF0900046
:101F73000C7405F0E59A30E131539AFD900009E0C5
:101F8300FF900008E0FE6F601C748E2EF582E4342F
:101F930001F583E0F59B900008E004F0C3948040D2
:101FA30009E4F0800590000AE4F0D007D006D0D011
:101FB300D082D083D0E032C0E0C083C082C0D0756D
:101FC300D000C006C00730982DC298900006E0707C
:101FD30025900004E0C394804002E4F0900004E004
:101FE300FF04F0740E2FF582E43400F583E599F0D5
:101FF3009000057405F0309930C299900002E0FF1B
:10200300900001E0FE6F601C740E2EF582E4340133
:10201300F583E0F599900001E004F0C39480400952
:10202300E4F08005900003E4F0D007D006D0D0D0D0
:1020330082D083D0E032EFD3940F40028065E4F581
:10204300BDF5BEE5BC54F044404FF5BC00000000B4
:10205300E4FDE5BC30E54753BCDFE5DEAFBD30E56D
:102063000DEFFEACBEECFBEBFF9002E4802290028E
:10207300E4E4F0A3EFF0E5BEC4540FFBE0C4F8546E
:102083000FC868FF9002E4E0C454F048FEEF4BFF32
:10209300EEF0A3EFF09002E4E0FEA3E0FF220DEDEB
:1020A300B4FAAF7E107F00229002E37440F0A37471
:1020B30001F0A312084B0001C2009002EA7401F080
:1020C300E4A3F0A304F0A3F0E4A3F07B017A027984
:1020D300E37F01120E3F9002E37440F09002E51299
:1020E300084B0001C2009002EA7401F09002ECF088
:1020F300E4A3F0A3F07B017A0279E37F02120E3F9F
:102103007BFF7A00795B02235C44028F00000000AE
:102113004402D6000000004102E1584102E061425E
:1021230002DE000042029300004402CA00000000E5
:102133004402CE000000004402D20000000044022A
:10214300DA000000004702B5000000000000004173
:10215300028E0000E49002E3F09002E3E0FFC394F8
:1021630008503BEF24B0FFE433FEE4FDFC122322CE
:10217300E4FDFCFFFE12232212231CE49002E4F090
:102183007D017C00E4FFFE1223229002E4E004F0D0
:10219300E0C3948040EA9002E3E004F080BB229025
:1021A30002E47433F0E49002E3F07B017A0279E312
:1021B3007F011212039002E474CCF09002E37401E5
:1021C300F0FB7A0279E37F031212039002E4746353
:1021D300F0E49002E3F07B017A0279E37F030212D9
:1021E300039002ECE0FFA3E0FD9002F2EFF0ED2498
:1021F300B0FFE433FEE4FDFC1223229002F2E0542C
:10220300F0C4540F7E004410FFE4FDFC122322901F
:1022130002F2E0540FFF7E00E4FDFC022322900251
:10222300F5EFF043BA801223A87F7812238E1200B1
:1022330018E4FF12238E1200189002F5E0FF122318
:102243008E1200181223B153BA7F229002F5EFF0D9
:1022530043BA801223A87F7812238E1200187F407E
:1022630012238E1200189002F5E0FF12238E120043
:10227300181223B153BA7F229002E3741FF0E49043
:1022830002E9F0A304F0E49002E4F0A304F0A3F065
:10229300A3F0E4A3F07B017A0279E3121E007F012D
:1022A30002239C9002E37436F0A37401F0A3F0E4DC
:1022B300A3F0A3F0A3F0A3F0A3F0A3F0A3F0A3F083
:1022C300A3F07B017A0279E30219BD900002E024B6
:1022D3000EF582E43401F583EFF0900002E004F0A0
:1022E300C394804002E4F0900003E0700404F0D251
:1022F3009922EFB40A07740D122300740A3098115F
:10230300A899B8130CC2983098FDA899C298B8112F
:10231300F63099FDC299F599227F10E4FDFCFE90F9
:1023230002F3EEF0A3EFF0ED4C9002F36006A3E0AE
:10233300FF02224EA3E0FF122221229002ECEFF0D3
:10234300A9057F017E00AD0119ED600C9002ECE060
:10235300FD7C0012061880EE2212059EFF600C120F
:1023630022CE740129F9E43AFA80EE227D517C04ED
:10237300ED1D70011C144C70F7DFF12290FE82E01A
:1023830030E6F990FE82E054BFF02290FE86EFF033
:1023930090FE817402F002237FEFB4010443BC80FA
:1023A3002253BC7F2290FE817401F002237F90FEB2
:1023B300817406F002237F0000000000000000008B
:1023C3002F000000000700070000147F147F140093
:1023D300242A7F2A120062640813230036495522F7
:1023E3005000000503000000001C224100000041D2
:1023F300221C000014083E08140008083E080800C8
:102403000000A060000008080808080000606000E1
:1024130000002010080402003E5149453E000042DE
:102423007F4000004261514946002141454B310044
:102433001814127F10002745454539003C4A494985
:102443003000017109050300364949493600064940
:1024530049291E00003636000000005636000000F1
:10246300081422410000141414141400004122140F
:102473000800020151090600324959513E007C12FD
:1024830011127C007F49494936003E4141412200F7
:102493007F4141221C007F49494941007F090909C5
:1024A30001003E4149497A007F0808087F00004146
:1024B3007F4100002040413F01007F08142241007A
:1024C3007F40404040007F020C027F007F040810E1
:1024D3007F003E4141413E007F09090906003E411C
:1024E30051215E007F0919294600464949493100B7
:1024F30001017F0101003F4040403F001F20402079
:102503001F003F4038403F0063140814630007086E
:1025130070080700615149454300007F41410000B5
:10252300552A552A55000041417F0000040201024B
:1025330004004040404040000001020400002054D9
:10254300545478007F4844443800384444442000BD
:10255300384444487F00385454541800087E090115
:10256300020018A4A4A47C007F080404780000449B
:102573007D4000004080847D00007F1028440000DF
:1025830000417F4000007C04180478007C080404A8
:102593007800384444443800FC24242418001824C8
:1025A3002418FC007C0804040800485454542000F8
:1025B300043F444020003C4040207C001C2040203D
:1025C3001C003C4030403C004428102844001CA020
:1025D300A0A07C004464544C441414141414140038
:1025E30000000000000000000000000000000000E8
:1025F3000000F8000000000000003330000000007D
:10260300100C06100C060000000000000000004043
:10261300C07840C0784000043F04043F0404000035
:102623007088FC08300000001820FF211E0000F015
:1026330008F000E018000000211C031E211E00000A
:10264300F00888700000001E212324192721101090
:10265300160E000000000000000000000000000053
:102663000000E018040200000000071820400000EA
:10267300020418E00000000040201807000000409A
:102683004080F0804040000202010F01020200007E
:102693000000F0000000000101011F010101000022
:1026A3000000000000000080B07000000000000087
:1026B3000000000000000000010101010101010010
:1026C30000000000000000003030000000000000A7
:1026D300000000806018040060180601000000007C
:1026E300E010080810E000000F102020100F000079
:1026F3001010F8000000000020203F202000000000
:102703007008080888700000302824222130000057
:10271300300888884830000018202020110E00005F
:1027230000C02010F8000000070424243F24000008
:10273300F80888880808000019212020110E0000DD
:10274300E0108888180000000F112020110E0000EF
:10275300380808C83808000000003F0000000000E7
:1027630070880808887000001C222121221C0000A8
:10277300E010080810E0000000312222110F0000D1
:102783000000C0C000000000000030300000000066
:1027930000008000000000000080600000000000D6
:1027A30000804020100800000102040810200040AF
:1027B300404040404040000404040404040400007A
:1027C30008102040800000002010080402010000CF
:1027D3007048080808F0000000003036010000C00F
:1027E30030C828E810E0000718272423140B000042
:1027F30000C038E0000000203C23020227382008F4
:10280300F8888888700000203F202020110E00C027
:10281300300808080838000718202020100800088E
:10282300F808080810E000203F202020100F0008BF
:10283300F88888E8081000203F202023201800088B
:10284300F88888E8081000203F200003000000C03B
:102853003008080838000007182020221E0200084C
:10286300F808000008F808203F210101213F20005B
:102873000808F8080800000020203F20200000007E
:10288300000808F8080800C08080807F0000000866
:10289300F888C028180800203F20012638200008A7
:1028A300F8080000000000203F202020203000080E
:1028B300F8F800F8F80800203F003F003F20000828
:1028C300F830C00008F808203F200007183F00E058
:1028D3001008080810E0000F10202020100F000837
:1028E300F808080808F000203F210101010000E07A
:1028F3001008080810E0000F18242438504F00086F
:10290300F8888888887000203F2000030C3020005E
:10291300708808080838000038202121221C00187C
:102923000808F8080818000000203F2000000008ED
:10293300F808000008F808001F202020201F0008C6
:1029430078880000C83808000007380E010000F836
:102953000800F80008F800033C0700073C030008E0
:102963001868808068180820302C03032C30200856
:1029730038C800C83808000000203F2000000010BD
:10298300080808C83808002038262120201800002D
:102993000000FE020202000000007F4040400000F1
:1029A3000C30C000000000000000010638C0000029
:1029B300020202FE000000004040407F00000000D1
:1029C30000040202020400000000000000000000F6
:1029D30000000000000000808080808080808000F4
:1029E30002020400000000000000000000000000DC
:1029F300008080808000000019242222223F2008CA
:102A0300F8008080000000003F112020110E00001C
:102A130000008080800000000E11202020110000A3
:102A23000000808088F800000E112020103F200055
:102A330000808080800000001F22222222130000D9
:102A43008080F0888888180020203F202000000024
:102A530000808080808000006B94949493600008D1
:102A6300F8008080800000203F210000203F2000EC
:102A7300809898000000000020203F2020000000E4
:102A83000000809898000000C08080807F000008CC
:102A9300F8000080808000203F24022D30200000B9
:102AA3000808F8000000000020203F2020000080DC
:102AB30080808080808000203F20003F20003F8076
:102AC30080008080800000203F210000203F200004
:102AD30000808080800000001F202020201F0080B5
:102AE3008000808000000080FFA12020110E0000E4
:102AF30000008080808000000E112020A0FF8080D5
:102B03008080008080800020203F21200001000081
:102B13000080808080800000332424242419000056
:102B23008080E0808000000000001F2020000080E3
:102B330080000000808000001F202020103F2080A4
:102B43008080000080808000010E30080601008034
:102B5300800080008080800F300C030C300F000059
:102B6300808000808080000020312E0E3120008084
:102B73008080000080808080818E701806010000B4
:102B8300808080808080000021302C222130000052
:102B9300000000807C020200000000003F40400073
:102BA300000000FF00000000000000FF0000000024
:102BB30002027C800000000040403F000000000053
:102BC30006010102020404000000000000000000EE
:102BD30000800000E00204180000004080000010A4
:102BE3000C0300003F40404040407800010E0000CD
:102BF30014A4442434AD6624940444A414000008AB
:102C0300090808090909FD09090B08080908000052
:102C130000F80808F80C0B08F80808F80000004052
:102C2300407F40407F4040407F40407F404000081D
:102C330024236AAA2AAA6A2A2A2AEA02020000107C
:102C430011151515FF15151511100F3040F800104B
:102C530010D0FF905020504C434C50204040000473
:102C63000300FF00414458414E6058474040001064
:102C730060028C00FE02F202FE00F800FF00000476
:102C8300047E018047300F10270047807F0000003B
:102C93000000000000000000000000000000000031
:102CA30000363600000000000000000000000000B5
:102CB300020C80608040300FC8080828180000020A
:102CC300027E018040201806010618204080008003
:102CD3004020908886808080838C10204080000074
:102CE3008040201807004080403F00000000002083
:102CF300102CE7242400F01010FF1010F000000146
:0F2D030001017F211100070202FF0202070000F9
:00000001FF
